CUST-001  ACC-001   SAVINGS             001000000USD
CUST-002  ACC-002   SALARY              000500000USD
CUST-003  ACC-003   STOCKS              002500000USD
CUST-004  ACC-004   FOOD                001200000USD
CUST-005  ACC-005   VACATION            000800000USD
