CUST-001  John                Doe                 30 Main St.                      10A       2nd Floor Apt. 5C   Springfield         1234USAjohndoe@johndoe.com                               +4512345678         ACC-001             001000000USD
CUST-002  Jane                Smith               25 Elm St.                       20B       3rd Floor Apt. 10D  Shelbyville         5678USAjanedoe@janedoe.com                               +4598765432         ACC-002             000500000USD
CUST-003  Michael             Nielsen             40 Oak St.                       5C        1st Floor Apt. 2A   Capital City        9012USAmichaelnielsen@michaelnielsen.com                 +4523456789         ACC-003             002500000USD
CUST-004  Anne                Jensen              35 Pine St.                      15A       4th Floor Apt. 8B   Ogdenville          3456USAannejensen@annejensen.com                         +4534567890         ACC-004             001200000USD
CUST-005  Jonathan            Doe                 28 Maple St.                     8B        2nd Floor Apt. 3C   North Haverbrook    7890USAjonathandoe@jonathandoe.com                       +4545678901         ACC-005             000800000USD
